{
  "contractName": "Factory",
  "abi": [
    {
      "constant": true,
      "inputs": [
        {
          "name": "",
          "type": "uint256"
        }
      ],
      "name": "deployedCampaigns",
      "outputs": [
        {
          "name": "",
          "type": "address"
        }
      ],
      "payable": false,
      "stateMutability": "view",
      "type": "function"
    },
    {
      "constant": false,
      "inputs": [
        {
          "name": "_minimum",
          "type": "uint256"
        }
      ],
      "name": "createCampaign",
      "outputs": [],
      "payable": false,
      "stateMutability": "nonpayable",
      "type": "function"
    },
    {
      "constant": true,
      "inputs": [],
      "name": "getDeployedCapaigns",
      "outputs": [
        {
          "name": "",
          "type": "address[]"
        }
      ],
      "payable": false,
      "stateMutability": "view",
      "type": "function"
    }
  ],
  "bytecode": "0x608060405234801561001057600080fd5b506111a5806100206000396000f300608060405260043610610057576000357c0100000000000000000000000000000000000000000000000000000000900463ffffffff168063339d50a51461005c57806399446543146100c9578063a3303a7514610135575b600080fd5b34801561006857600080fd5b5061008760048036038101908080359060200190929190505050610162565b604051808273ffffffffffffffffffffffffffffffffffffffff1673ffffffffffffffffffffffffffffffffffffffff16815260200191505060405180910390f35b3480156100d557600080fd5b506100de6101a0565b6040518080602001828103825283818151815260200191508051906020019060200280838360005b83811015610121578082015181840152602081019050610106565b505050509050019250505060405180910390f35b34801561014157600080fd5b506101606004803603810190808035906020019092919050505061022e565b005b60008181548110151561017157fe5b906000526020600020016000915054906101000a900473ffffffffffffffffffffffffffffffffffffffff1681565b6060600080548060200260200160405190810160405280929190818152602001828054801561022457602002820191906000526020600020905b8160009054906101000a900473ffffffffffffffffffffffffffffffffffffffff1673ffffffffffffffffffffffffffffffffffffffff16815260200190600101908083116101da575b5050505050905090565b6000813361023a610300565b808381526020018273ffffffffffffffffffffffffffffffffffffffff1673ffffffffffffffffffffffffffffffffffffffff16815260200192505050604051809103906000f080158015610293573d6000803e3d6000fd5b50905060008190806001815401808255809150509060018203906000526020600020016000909192909190916101000a81548173ffffffffffffffffffffffffffffffffffffffff021916908373ffffffffffffffffffffffffffffffffffffffff160217905550505050565b604051610e6980610311833901905600608060405234801561001057600080fd5b50604051604080610e69833981018060405281019080805190602001909291908051906020019092919050505080600260006101000a81548173ffffffffffffffffffffffffffffffffffffffff021916908373ffffffffffffffffffffffffffffffffffffffff1602179055508160008190555060006001819055505050610dcb8061009e6000396000f3006080604052600436106100af576000357c0100000000000000000000000000000000000000000000000000000000900463ffffffff1680630a144391146100b45780633410452a1461010f5780634051ddac1461013a578063481c6a75146101ad57806352d6804d1461020457806381d12c581461022f57806382fde093146103215780638a9cfd551461034c578063987c269d146103df578063bd39dfba1461040f578063d7bb99ba1461043f575b600080fd5b3480156100c057600080fd5b506100f5600480360381019080803573ffffffffffffffffffffffffffffffffffffffff169060200190929190505050610449565b604051808215151515815260200191505060405180910390f35b34801561011b57600080fd5b50610124610469565b6040518082815260200191505060405180910390f35b34801561014657600080fd5b5061014f610476565b604051808681526020018581526020018481526020018381526020018273ffffffffffffffffffffffffffffffffffffffff1673ffffffffffffffffffffffffffffffffffffffff1681526020019550505050505060405180910390f35b3480156101b957600080fd5b506101c26104d5565b604051808273ffffffffffffffffffffffffffffffffffffffff1673ffffffffffffffffffffffffffffffffffffffff16815260200191505060405180910390f35b34801561021057600080fd5b506102196104fb565b6040518082815260200191505060405180910390f35b34801561023b57600080fd5b5061025a60048036038101908080359060200190929190505050610501565b604051808673ffffffffffffffffffffffffffffffffffffffff1673ffffffffffffffffffffffffffffffffffffffff1681526020018060200185151515158152602001848152602001838152602001828103825286818151815260200191508051906020019080838360005b838110156102e25780820151818401526020810190506102c7565b50505050905090810190601f16801561030f5780820380516001836020036101000a031916815260200191505b50965050505050505060405180910390f35b34801561032d57600080fd5b5061033661060b565b6040518082815260200191505060405180910390f35b34801561035857600080fd5b506103dd600480360381019080803590602001908201803590602001908080601f016020809104026020016040519081016040528093929190818152602001838380828437820191505050505050919291929080359060200190929190803573ffffffffffffffffffffffffffffffffffffffff169060200190929190505050610611565b005b3480156103eb57600080fd5b5061040d600480360381019080803560ff169060200190929190505050610788565b005b34801561041b57600080fd5b5061043d600480360381019080803560ff1690602001909291905050506109c9565b005b610447610c35565b005b60046020528060005260406000206000915054906101000a900460ff1681565b6000600380549050905090565b600080600080600080543073ffffffffffffffffffffffffffffffffffffffff1631600380549050600154600260009054906101000a900473ffffffffffffffffffffffffffffffffffffffff16945094509450945094509091929394565b600260009054906101000a900473ffffffffffffffffffffffffffffffffffffffff1681565b60005481565b60038181548110151561051057fe5b90600052602060002090600602016000915090508060010160009054906101000a900473ffffffffffffffffffffffffffffffffffffffff1690806002018054600181600116156101000203166002900480601f0160208091040260200160405190810160405280929190818152602001828054600181600116156101000203166002900480156105e25780601f106105b7576101008083540402835291602001916105e2565b820191906000526020600020905b8154815290600101906020018083116105c557829003601f168201915b5050505050908060030160009054906101000a900460ff16908060040154908060050154905085565b60015481565b610619610cb2565b600260009054906101000a900473ffffffffffffffffffffffffffffffffffffffff1673ffffffffffffffffffffffffffffffffffffffff163373ffffffffffffffffffffffffffffffffffffffff1614151561067557600080fd5b60a0604051908101604052808373ffffffffffffffffffffffffffffffffffffffff168152602001858152602001600015158152602001600081526020018481525090506003819080600181540180825580915050906001820390600052602060002090600602016000909192909190915060008201518160010160006101000a81548173ffffffffffffffffffffffffffffffffffffffff021916908373ffffffffffffffffffffffffffffffffffffffff160217905550602082015181600201908051906020019061074a929190610cfa565b5060408201518160030160006101000a81548160ff021916908315150217905550606082015181600401556080820151816005015550505050505050565b600060038260ff1681548110151561079c57fe5b90600052602060002090600602019050600460003373ffffffffffffffffffffffffffffffffffffffff1673ffffffffffffffffffffffffffffffffffffffff16815260200190815260200160002060009054906101000a900460ff161515610893576040517f08c379a00000000000000000000000000000000000000000000000000000000081526004018080602001828103825260278152602001807f53656e646572206973206e6f74207265676973746572656420617320636f6e7481526020017f72696275746f720000000000000000000000000000000000000000000000000081525060400191505060405180910390fd5b8060000160003373ffffffffffffffffffffffffffffffffffffffff1673ffffffffffffffffffffffffffffffffffffffff16815260200190815260200160002060009054906101000a900460ff16151515610957576040517f08c379a000000000000000000000000000000000000000000000000000000000815260040180806020018281038252601e8152602001807f417070726f7665722063616e20617070726f7665206f6e6c79206f6e6365000081525060200191505060405180910390fd5b60018160000160003373ffffffffffffffffffffffffffffffffffffffff1673ffffffffffffffffffffffffffffffffffffffff16815260200190815260200160002060006101000a81548160ff02191690831515021790555080600401600081548092919060010191905055505050565b6000600260009054906101000a900473ffffffffffffffffffffffffffffffffffffffff1673ffffffffffffffffffffffffffffffffffffffff163373ffffffffffffffffffffffffffffffffffffffff16141515610a2757600080fd5b60038260ff16815481101515610a3957fe5b906000526020600020906006020190508060030160009054906101000a900460ff16151515610af6576040517f08c379a00000000000000000000000000000000000000000000000000000000081526004018080602001828103825260218152602001807f52657175657374206d757374206265206e6f7420636f6d706c6574656420796581526020017f740000000000000000000000000000000000000000000000000000000000000081525060400191505060405180910390fd5b6002600154811515610b0457fe5b048160040154111515610ba5576040517f08c379a00000000000000000000000000000000000000000000000000000000081526004018080602001828103825260258152602001807f4d6f7265207468616e2035302520617070726f76657273206861766520746f2081526020017f616772656500000000000000000000000000000000000000000000000000000081525060400191505060405180910390fd5b8060010160009054906101000a900473ffffffffffffffffffffffffffffffffffffffff1673ffffffffffffffffffffffffffffffffffffffff166108fc82600501549081150290604051600060405180830381858888f19350505050158015610c13573d6000803e3d6000fd5b5060018160030160006101000a81548160ff0219169083151502179055505050565b6000543410151515610c4657600080fd5b6001600460003373ffffffffffffffffffffffffffffffffffffffff1673ffffffffffffffffffffffffffffffffffffffff16815260200190815260200160002060006101000a81548160ff021916908315150217905550600160008154809291906001019190505550565b60a060405190810160405280600073ffffffffffffffffffffffffffffffffffffffff1681526020016060815260200160001515815260200160008152602001600081525090565b828054600181600116156101000203166002900490600052602060002090601f016020900481019282601f10610d3b57805160ff1916838001178555610d69565b82800160010185558215610d69579182015b82811115610d68578251825591602001919060010190610d4d565b5b509050610d769190610d7a565b5090565b610d9c91905b80821115610d98576000816000905550600101610d80565b5090565b905600a165627a7a723058206ac9179c45bdcb327b04d1f52665a620e7046f159db64fb3a2acf67d347322640029a165627a7a723058202c5915f55c7178140fdafd534bd7d5a38c6164a873b35c809f8cd672de3029570029",
  "source": "pragma solidity ^0.4.17;\n\ncontract Factory {\n\n  address[] public deployedCampaigns;\n\n  function createCampaign(uint _minimum) public {\n    address campaignAddress = new Campaign(_minimum, msg.sender);\n    deployedCampaigns.push(campaignAddress);\n  }\n\n  function getDeployedCapaigns() public view returns (address[]) {\n    return deployedCampaigns;\n  }\n\n}\n\ncontract Campaign {\n  \n  // Minimum value that contributor can in\n  uint public minimum;\n  // Number of registered approvers\n  uint public approversCount;\n  // Address of owner of campaing\n  address public manager;\n  // List of request prepared by manager\n  Request[] public requests;\n  // Address list of contributoris\n  mapping(address => bool) public approvers;\n\n  constructor(uint _minimum, address _sender) public {\n    manager = _sender;\n    minimum = _minimum;\n    approversCount = 0;\n  }\n\n  modifier restricted {\n    require(msg.sender == manager);\n    _;\n  }\n\n  function contribute() public payable {\n    require(msg.value >= minimum);\n\n    approvers[msg.sender] = true;\n    approversCount++;\n  }\n\n  function createRequest(string description, uint value, address recipient) public restricted {\n\n    Request memory newRequest = Request({ \n      description: description,\n      value: value,\n      recipient: recipient,\n      complete: false,\n      approvalCount: 0 \n    });\n\n    requests.push(newRequest);\n  }\n\n  function approveRequest(uint8 index) public {\n    Request storage request = requests[index];\n    \n    require(approvers[msg.sender], \"Sender is not registered as contributor\");\n    require(!request.approvals[msg.sender], \"Approver can approve only once\");\n    \n    // Mark sender has already approved and increment approval count\n    request.approvals[msg.sender] = true;\n    request.approvalCount++;\n  }\n\n  function finalizeRequest(uint8 index) public restricted {\n    Request storage request = requests[index];\n\n    require(!request.complete, \"Request must be not completed yet\");\n    require(request.approvalCount > (approversCount / 2), \"More than 50% approvers have to agree\");\n\n    // Send money and mark request as completed\n    request.recipient.transfer(request.value);\n    request.complete = true;\n  }\n\n  function getSummary() public view returns (\n    uint, uint, uint, uint, address\n    ) {\n    return (\n      minimum,\n      address(this).balance,\n      requests.length,\n      approversCount,\n      manager\n    );\n  }\n\n  function getRequestsCount() public view returns (uint) {\n    return requests.length;\n  }\n\n  struct Request {\n    mapping(address => bool) approvals;\n    address recipient;\n    string description;\n    bool complete;\n    uint approvalCount;\n    uint value;\n  }\n  \n}",
  "sourcePath": "/Users/jbogacz/sandbox/ethereum/kickstart/ethereum/contracts/Campaign.sol",
  "compiler": {
    "name": "solc",
    "version": "0.4.23+commit.124ca40d.Emscripten.clang"
  },
  "schemaVersion": "2.0.0",
  "updatedAt": "2018-07-18T05:22:41.439Z"
}